:100000000C9462000C948A000C948A000C948A0070
:100010000C948A000C948A000C948A000C948A0038
:100020000C948A000C948A000C948A000C948A0028
:100030000C948A000C948A000C948A000C948A0018
:100040000C9480020C948A000C944E020C942802AA
:100050000C948A000C948A000C948A000C948A00F8
:100060000C948A000C948A000000000024002700F1
:100070002A0000000000250028002B0000000008D6
:10008000000201000003040700000000000000005F
:1000900000000000230026002900040404040404D6
:1000A0000404020202020202030303030303010227
:1000B00004081020408001020408102001020408F6
:1000C0001020550411241FBECFEFD8E0DEBFCDBFF6
:1000D00011E0A0E0B1E0ECEAFCE002C005900D9276
:1000E000A231B107D9F721E0A2E1B1E001C01D9230
:1000F000AE3BB207E1F710E0C2E6D0E004C02197C2
:10010000FE010E944E06C136D107C9F70E940F03B7
:100110000C9454060C940000AF92BF92CF92DF92E1
:10012000EF92FF920F931F93CF93DF936C017B01AC
:100130008B01040F151FEB015E01AE18BF08C0173D
:10014000D10759F06991D601ED91FC910190F081B0
:10015000E02DC6010995892B79F7C501DF91CF9173
:100160001F910F91FF90EF90DF90CF90BF90AF90D5
:100170000895FC01538D448D252F30E0842F90E0AD
:10018000821B930B541710F0CF9608950197089592
:10019000FC01918D828D981761F0A28DAE0FBF2F5B
:1001A000B11D5D968C91928D9F5F9F73928F90E0B1
:1001B00008958FEF9FEF0895FC01918D828D981720
:1001C00031F0828DE80FF11D858D90E008958FEF5D
:1001D0009FEF0895FC01918D228D892F90E0805C26
:1001E0009F4F821B91098F73992708958BE191E0AE
:1001F0000E94EA0021E0892B09F420E0822F089573
:1002000080E090E0892B29F00E94F60081110C9487
:1002100000000895FC01A48DA80FB92FB11DA35AA9
:10022000BF4F2C91848D90E001968F739927848F16
:10023000A689B7892C93A089B1898C918370806439
:100240008C93938D848D981306C00288F389E02DDA
:1002500080818F7D80830895EF92FF920F931F938B
:10026000CF93DF93EC0181E0888F9B8D8C8D981369
:100270001AC0E889F989808185FF15C09FB7F89475
:10028000EE89FF896083E889F989808183708064C1
:1002900080839FBF81E090E0DF91CF911F910F910C
:1002A000FF90EF900895F62E0B8D10E00F5F1F4F1B
:1002B0000F731127E02E8C8D8E110CC00FB607FC2A
:1002C000FACFE889F989808185FFF5CFCE010E94B8
:1002D0000A01F1CFEB8DEC0FFD2FF11DE35AFF4F1B
:1002E000F0829FB7F8940B8FEA89FB898081806246
:1002F000CFCFCF93DF93EC01888D8823B9F0AA8903
:10030000BB89E889F9898C9185FD03C0808186FDD0
:100310000DC00FB607FCF7CF8C9185FFF2CF80811F
:1003200085FFEDCFCE010E940A01E9CFDF91CF9189
:10033000089590E0FC01E458FF4F2491FC01E25540
:10034000FF4F3491FC01E656FF4FE491EE23C9F0D4
:10035000222339F0233001F1A8F4213019F12230A1
:1003600029F1F0E0EE0FFF1FEE58FF4FA591B49179
:100370008FB7F894EC91611126C030953E233C93E1
:100380008FBF08952730A9F02830C9F0243049F7ED
:10039000809180008F7D03C0809180008F77809353
:1003A0008000DFCF84B58F7784BDDBCF84B58F7DB0
:1003B000FBCF8091B0008F778093B000D2CF809137
:1003C000B0008F7DF9CF3E2BDACFCF93DF9390E053
:1003D000FC01E255FF4F249186569F4FFC0184910A
:1003E0008823D1F090E0880F991FFC01E859FF4F56
:1003F000A591B491FC01EE58FF4FC591D4916111C4
:100400000EC09FB7F8948C91E22FE0958E238C93C9
:100410002881E223E8839FBFDF91CF9108958FB7B2
:10042000F894EC91E22BEC938FBFF6CF8E50806462
:1004300080937C0080917A00806480937A00809120
:100440007A0086FDFCCF8091780090917900089524
:100450001F920F920FB60F9211242F933F934F9339
:100460005F936F937F938F939F93AF93BF93EF931C
:10047000FF938BE191E00E940A01FF91EF91BF9100
:10048000AF919F918F917F916F915F914F913F912C
:100490002F910F900FBE0F901F9018951F920F92E3
:1004A0000FB60F9211242F938F939F93EF93FF9387
:1004B000E0912B01F0912C018081E0913101F091CC
:1004C000320182FD1BC09081809134018F5F8F7358
:1004D00020913501821741F0E0913401F0E0E55EB2
:1004E000FE4F958F80933401FF91EF919F918F91F3
:1004F0002F910F900FBE0F901F9018958081F4CF11
:100500001F920F920FB60F9211242F933F938F9348
:100510009F93AF93BF938091170190911801A09181
:100520001901B0911A013091160123E0230F2D37E4
:1005300058F50196A11DB11D209316018093170156
:1005400090931801A0931901B0931A0180911201A0
:1005500090911301A0911401B09115010196A11D74
:10056000B11D8093120190931301A0931401B093D5
:100570001501BF91AF919F918F913F912F910F9056
:100580000FBE0F901F90189526E8230F0296A11D0D
:10059000B11DD2CFCF92DF92EF92FF920F931F93B4
:1005A000E82FF92F05C0015011092109310961F126
:1005B000908196239417B9F305C0015011092109C0
:1005C000310911F1908196239413F7CFC12CD12CCE
:1005D000E12CF12C0AC08FEFC81AD80AE80AF80AF1
:1005E0000C151D052E053F0579F0808186238417A3
:1005F00091F36C2D7D2D8E2D9F2D1F910F91FF90CE
:10060000EF90DF90CF90089560E070E080E090E0A0
:100610001F910F91FF90EF90DF90CF900895789405
:1006200084B5826084BD84B5816084BD85B58260F7
:1006300085BD85B5816085BD80916E0081608093A8
:100640006E00109281008091810082608093810011
:100650008091810081608093810080918000816021
:10066000809380008091B10084608093B10080917C
:10067000B00081608093B00080917A0084608093A4
:100680007A0080917A00826080937A0080917A006B
:10069000816080937A0080917A00806880937A00EC
:1006A0001092C10060E08EE00E94E50161E088E008
:1006B0000E94E50161E086E00E94E501E0912B01E6
:1006C000F0912C0182E08083E0912701F0912801D4
:1006D0001082E0912901F0912A018FEC8083109221
:1006E0003301E0912F01F091300186E08083E091A9
:1006F0002D01F0912E01808180618083E0912D0198
:10070000F0912E01808188608083E0912D01F0912D
:100710002E01808180688083E0912D01F0912E016F
:1007200080818F7D808361E08AE00E94E50160E046
:1007300089E00E94E501CBE8D1E027EBE22E20E042
:10074000F22E33EAC32E30E0D32E40E0A42E40E058
:10075000B42E8EE00E941602BC01990F880B990BF3
:100760000E942C0524E13EEA43E251E40E94820407
:100770000E94F4047093BD016093BC0161E08AE0C3
:100780000E949901CE010197F1F760E08AE00E9492
:100790009901F7016491F6018491E82FF0E0EE0FE2
:1007A000FF1FE057FF4F8591949100E412E42FE082
:1007B00030E0462F0E94CA0261157105810591053E
:1007C00029F06F5F7F4F8F4F9F4F9F709B0177FF87
:1007D00002C02F5F3F4FB90175956795072E000C3A
:1007E000880B990B0E942C052DEC3CEC48EE51E453
:1007F0000E9482040E94F4048B0180E10E94160290
:10080000BC01990F880B990B0E942C0520E030E069
:1008100040E85AE30E94BD0520E030E04AEF53E48F
:100820000E94BD052B013C014092B8015092B901D4
:100830006092BA017092BB018091BC019091BD01A0
:100840000E35F1E01F070CF582339105F4F461E0F9
:1008500088E00E94990120E030E040ED51E4C301BE
:10086000B2010E94B80561E01816ECF486E00E941F
:100870009901A114B10409F46CCF0E94F6008823F9
:1008800009F467CF0E94000064CF8734910524F4F7
:100890000F3521E0120724F060E088E00E94990102
:1008A0000E351140C4F260E0E1CFEBE1F1E01382DC
:1008B000128288EE93E0A0E0B0E084839583A68363
:1008C000B78384E091E09183808385EC90E0958705
:1008D000848784EC90E09787868780EC90E0918B0A
:1008E000808B81EC90E0938B828B82EC90E0958BF7
:1008F000848B86EC90E0978B868B118E128E138EF4
:10090000148E08950E9496040C947E050E9477052B
:1009100058F00E94700540F029F45F3F29F00C94D4
:10092000670551110C94B2050C946D050E948F055A
:1009300068F39923B1F3552391F3951B550BBB270E
:10094000AA2762177307840738F09F5F5F4F220F53
:10095000331F441FAA1FA9F335D00E2E3AF0E0E84A
:1009600032D091505040E695001CCAF72BD0FE2F94
:1009700029D0660F771F881FBB1F26173707480728
:10098000AB07B0E809F0BB0B802DBF01FF279358E0
:100990005F4F3AF09E3F510578F00C9467050C9438
:1009A000B2055F3FE4F3983ED4F38695779567955B
:1009B000B795F7959F5FC9F7880F911D9695879515
:1009C00097F90895E1E0660F771F881FBB1F621734
:1009D00073078407BA0720F0621B730B840BBA0BF2
:1009E000EE1F88F7E09508950E94FB046894B1110A
:1009F0000C94B20508950E94970588F09F5798F0CF
:100A0000B92F9927B751B0F0E1F0660F771F881F13
:100A1000991F1AF0BA95C9F714C0B13091F00E942D
:100A2000B105B1E008950C94B105672F782F8827A0
:100A3000B85F39F0B93FCCF3869577956795B39554
:100A4000D9F73EF490958095709561957F4F8F4FC3
:100A50009F4F0895E89409C097FB3EF490958095C8
:100A6000709561957F4F8F4F9F4F9923A9F0F92F74
:100A700096E9BB279395F695879577956795B795F2
:100A8000F111F8CFFAF4BB0F11F460FF1BC06F5FD8
:100A90007F4F8F4F9F4F16C0882311F096E911C0EA
:100AA000772321F09EE8872F762F05C0662371F00B
:100AB00096E8862F70E060E02AF09A95660F771F1F
:100AC000881FDAF7880F9695879597F9089597F913
:100AD0009F6780E870E060E008959FEF80EC0895E4
:100AE00000240A941616170618060906089500240D
:100AF0000A9412161306140605060895092E039487
:100B0000000C11F4882352F0BB0F40F4BF2B11F4FA
:100B100060FF04C06F5F7F4F8F4F9F4F089557FD59
:100B20009058440F551F59F05F3F71F04795880F5B
:100B300097FB991F61F09F3F79F0879508951216F2
:100B400013061406551FF2CF4695F1DF08C016169E
:100B500017061806991FF1CF86957105610508944F
:100B60000895E894BB2766277727CB0197F9089566
:100B70000E942A0608F48FEF08950E94D0050C9475
:100B80007E050E94700538F00E94770520F09523BD
:100B900011F00C9467050C946D0511240C94B205AA
:100BA0000E948F0570F3959FC1F3950F50E0551F7C
:100BB000629FF001729FBB27F00DB11D639FAA27B2
:100BC000F00DB11DAA1F649F6627B00DA11D661F01
:100BD000829F2227B00DA11D621F739FB00DA11D22
:100BE000621F839FA00D611D221F749F3327A00DDC
:100BF000611D231F849F600D211D822F762F6A2F78
:100C000011249F5750409AF0F1F088234AF0EE0FDC
:100C1000FF1FBB1F661F771F881F91505040A9F709
:100C20009E3F510580F00C9467050C94B2055F3F20
:100C3000E4F3983ED4F3869577956795B795F79545
:100C4000E7959F5FC1F7FE2B880F911D96958795BD
:100C500097F90895990F0008550FAA0BE0E8FEEFE9
:100C600016161706E807F907C0F012161306E40770
:100C7000F50798F0621B730B840B950B39F40A2669
:100C800061F0232B242B252B21F408950A2609F447
:100C9000A140A6958FEF811D811D0895EE0FFF1FC6
:0C0CA0000590F491E02D0994F894FFCF2A
:100CAC00000000002C018C00B9007901EA00C8009A
:020CBC00DC005A
:00000001FF
