:100000000C9462000C948A000C948A000C948A0070
:100010000C948A000C948A000C948A000C948A0038
:100020000C948A000C948A000C948A000C948A0028
:100030000C948A000C948A000C948A000C948A0018
:100040000C947A040C948A000C9448040C942204B6
:100050000C948A000C948A000C948A000C948A00F8
:100060000C948A000C948A000000000024002700F1
:100070002A0000000000250028002B0000000008D6
:10008000000201000003040700000000000000005F
:1000900000000000230026002900040404040404D6
:1000A0000404020202020202030303030303010227
:1000B00004081020408001020408102001020408F6
:1000C0001020090511241FBECFEFD8E0DEBFCDBF41
:1000D00011E0A0E0B1E0EEE4F0E102C005900D9285
:1000E000A637B107D9F722E0A6E7B1E001C01D921B
:1000F000A633B207E1F710E0C2E6D0E004C02197D2
:10010000FE010E941F08C136D107C9F70E9453059E
:100110000C9425080C940000AF92BF92CF92DF920E
:10012000EF92FF920F931F93CF93DF936C017B01AC
:100130008B01040F151FEB015E01AE18BF08C0173D
:10014000D10759F06991D601ED91FC910190F081B0
:10015000E02DC6010995892B79F7C501DF91CF9173
:100160001F910F91FF90EF90DF90CF90BF90AF90D5
:100170000895FC01538D448D252F30E0842F90E0AD
:10018000821B930B541710F0CF9608950197089592
:10019000FC01918D828D981761F0A28DAE0FBF2F5B
:1001A000B11D5D968C91928D9F5F9F73928F90E0B1
:1001B00008958FEF9FEF0895FC01918D828D981720
:1001C00031F0828DE80FF11D858D90E008958FEF5D
:1001D0009FEF0895FC01918D228D892F90E0805C26
:1001E0009F4F821B91098F739927089581E891E0B1
:1001F0000E94EA0021E0892B09F420E0822F089573
:1002000080E090E0892B29F00E94F60081110C9487
:1002100000000895FC01A48DA80FB92FB11DA35AA9
:10022000BF4F2C91848D90E001968F739927848F16
:10023000A689B7892C93A089B1898C918370806439
:100240008C93938D848D981306C00288F389E02DDA
:1002500080818F7D80830895EF92FF920F931F938B
:10026000CF93DF93EC0181E0888F9B8D8C8D981369
:100270001AC0E889F989808185FF15C09FB7F89475
:10028000EE89FF896083E889F989808183708064C1
:1002900080839FBF81E090E0DF91CF911F910F910C
:1002A000FF90EF900895F62E0B8D10E00F5F1F4F1B
:1002B0000F731127E02E8C8D8E110CC00FB607FC2A
:1002C000FACFE889F989808185FFF5CFCE010E94B8
:1002D0000A01F1CFEB8DEC0FFD2FF11DE35AFF4F1B
:1002E000F0829FB7F8940B8FEA89FB898081806246
:1002F000CFCFCF93DF93EC01888D8823B9F0AA8903
:10030000BB89E889F9898C9185FD03C0808186FDD0
:100310000DC00FB607FCF7CF8C9185FFF2CF80811F
:1003200085FFEDCFCE010E940A01E9CFDF91CF9189
:10033000089590E0FC01E458FF4F2491FC01E25540
:10034000FF4F3491FC01E656FF4FE491EE23C9F0D4
:10035000222339F0233001F1A8F4213019F12230A1
:1003600029F1F0E0EE0FFF1FEE58FF4FA591B49179
:100370008FB7F894EC91611126C030953E233C93E1
:100380008FBF08952730A9F02830C9F0243049F7ED
:10039000809180008F7D03C0809180008F77809353
:1003A0008000DFCF84B58F7784BDDBCF84B58F7DB0
:1003B000FBCF8091B0008F778093B000D2CF809137
:1003C000B0008F7DF9CF3E2BDACFCF93DF9390E053
:1003D000FC01E255FF4F249186569F4FFC0184910A
:1003E0008823D1F090E0880F991FFC01E859FF4F56
:1003F000A591B491FC01EE58FF4FC591D4916111C4
:100400000EC09FB7F8948C91E22FE0958E238C93C9
:100410002881E223E8839FBFDF91CF9108958FB7B2
:10042000F894EC91E22BEC938FBFF6CF3FB7F894A2
:1004300080917B0190917C01A0917D01B0917E0122
:1004400026B5A89B05C02F3F19F00196A11DB11D2F
:100450003FBFBA2FA92F982F8827BC01CD01620F6B
:10046000711D811D911D42E0660F771F881F991F26
:100470004A95D1F708958F929F92AF92BF92CF92F3
:10048000DF92EF92FF924B015C010E9416026B011A
:100490007C010E9416026C197D098E099F09683E35
:1004A000734081059105A8F321E0821A9108A10803
:1004B000B10888EEC80E83E0D81EE11CF11C81143F
:1004C0009104A104B10429F7FF90EF90DF90CF9041
:1004D000BF90AF909F908F900895089590E080E036
:1004E00008958F929F92AF92BF920F931F93CF93D5
:1004F000DF93CDB7DEB7A1970FB6F894DEBF0FBE7E
:10050000CDBF19A2423008F44AE08E010F5D1F4FA3
:10051000842E912CB12CA12CA50194010E94FD07E1
:10052000E62FB901CA01EA3044F5E05DD801EE9347
:100530008D01232B242B252B79F790E080E0109759
:1005400069F0FD0101900020E9F73197AF014A1BE6
:100550005B0BBD018EE192E00E948C00A1960FB66C
:10056000F894DEBF0FBECDBFDF91CF911F910F91E9
:10057000BF90AF909F908F900895E95CD7CFFC011A
:1005800001900020E9F73197AF01481B590BBC01DE
:100590008EE192E00C948C00CF93DF93EC0160E04D
:1005A0008E810E94990161E08E810E94990160E034
:1005B0008E810E9499018BE891E00197F1F7DF911C
:1005C000CF910895CF92DF92EF92FF920F931F93F6
:1005D000CF93DF936C017C0187E0E80EF11CD0E043
:1005E000C0E0062F10E0B8010C2E02C0759567958B
:1005F0000A94E2F76170F70181917F010E949901ED
:100600002196C430D10579F7C601DF91CF911F91B2
:100610000F91FF90EF90DF90CF900C94CC02CF928F
:10062000DF92EF92FF920F931F93CF93DF93EC0132
:10063000F62E642F8C810E9499018D818F3F19F0D5
:1006400060E00E9499010F2D10E08F8584FF25C086
:100650006E0187E0C80ED11CF12CE12CB8010E2CE4
:1006600002C0759567950A94E2F76170F601819171
:100670006F010E949901FFEFEF1AFF0A88E0E81668
:10068000F10461F7CE01DF91CF911F910F91FF909F
:10069000EF90DF90CF900C94CC02B80184E0759578
:1006A00067958A95E1F7CE010E94E2026F2DCE0197
:1006B000DF91CF911F910F91FF90EF90DF90CF903E
:1006C0000C94E20240E0682F8EE192E00C940F035C
:1006D000CF93DF93823029F490912D02986090930C
:1006E0002D02809331021092320280E48093330213
:1006F00080E18093340280E58093350261E080914F
:1007000022020E94E501809123028F3F19F061E0EF
:100710000E94E50161E0809124020E94E501CEE1A2
:10072000D2E09E012E51324080912D0284FD0BC0FB
:1007300084E090E021962817390744F461E08E8127
:100740000E94E501EECF88E090E0F4CF8BE39DE0DE
:100750000197F1F760E0809122020E94990160E028
:10076000809124020E949901809123028F3F19F009
:1007700060E00E94990180912D0284FD39C063E000
:100780008EE192E00E94E202CBE4D6E4CE01019732
:10079000F1F763E08EE192E00E94E2022197F1F727
:1007A00063E08EE192E00E94E20283E592E001972D
:1007B000F1F762E08EE192E00E94E20280912D0268
:1007C00080620E94620384E080932E028CE00E948B
:1007D000620381E00E9462038BE39FE10197F1F7DE
:1007E00082E080932F0286E0DF91CF910C94620328
:1007F00080620E9462038BE496E40197F1F7809196
:100800002D0280620E94620383E592E00197F1F776
:1008100080912D0280620E946203D0CF90913102BC
:10082000891710F08FEF890FE82FF0E0E25EFD4F9F
:10083000848980680C94620341E00E940F0381E088
:1008400090E008951F920F920FB60F9211242F93EC
:100850003F934F935F936F937F938F939F93AF9348
:10086000BF93EF93FF9381E891E00E940A01FF910B
:10087000EF91BF91AF919F918F917F916F915F9118
:100880004F913F912F910F900FBE0F901F90189591
:100890001F920F920FB60F9211242F938F939F9355
:1008A000EF93FF93E0919101F09192018081E091AB
:1008B0009701F091980182FD1BC0908180919A016F
:1008C0008F5F8F7320919B01821741F0E0919A0115
:1008D000F0E0EF57FE4F958F80939A01FF91EF91D3
:1008E0009F918F912F910F900FBE0F901F90189591
:1008F0008081F4CF1F920F920FB60F9211242F9385
:100900003F938F939F93AF93BF9380917701909183
:100910007801A0917901B0917A013091760123E0BC
:10092000230F2D3758F50196A11DB11D2093760197
:100930008093770190937801A0937901B0937A0125
:1009400080917B0190917C01A0917D01B0917E010D
:100950000196A11DB11D80937B0190937C01A09312
:100960007D01B0937E01BF91AF919F918F913F9197
:100970002F910F900FBE0F901F90189526E8230F10
:100980000296A11DB11DD2CFCF92DF92EF92FF92BE
:100990000F931F93E82FF92F05C00150110921096A
:1009A000310961F1908196239417B9F305C0015084
:1009B00011092109310911F1908196239413F7CF80
:1009C000C12CD12CE12CF12C0AC08FEFC81AD80A07
:1009D000E80AF80A0C151D052E053F0579F08081FF
:1009E0008623841791F36C2D7D2D8E2D9F2D1F91C5
:1009F0000F91FF90EF90DF90CF90089560E070E04E
:100A000080E090E01F910F91FF90EF90DF90CF90EA
:100A10000895E1E8F1E01382128288EE93E0A0E00D
:100A2000B0E084839583A683B78384E091E09183CB
:100A3000808385EC90E09587848784EC90E09787AD
:100A4000868780EC90E0918B808B81EC90E0938B9B
:100A5000828B82EC90E0958B848B86EC90E0978B78
:100A6000868B118E128E138E148EEEE1F2E01382BD
:100A7000128286E191E09183808382E084838FEF0C
:100A8000858383E0868384E0878385E0808786E0B2
:100A9000818787E0828713861486158616861786D7
:100AA00081E00C946803789484B5826084BD84B539
:100AB000816084BD85B5826085BD85B5816085BD59
:100AC00080916E00816080936E0010928100809111
:100AD0008100826080938100809181008160809399
:100AE0008100809180008160809380008091B100BE
:100AF00084608093B1008091B00081608093B000E9
:100B000080917A00846080937A0080917A0082607C
:100B100080937A0080917A00816080937A0080913E
:100B20007A00806880937A001092C10060E08EE0C5
:100B30000E94E50161E088E00E94E501E0919101F9
:100B4000F091920182E08083E0918D01F0918E011D
:100B50001082E0918F01F09190018FEC80831092D0
:100B60009901E0919501F091960186E08083E091F2
:100B70009301F0919401808180618083E0919301E1
:100B8000F0919401808188608083E0919301F091DD
:100B90009401808180688083E0919301F0919401B9
:100BA00080818F7D808361E08AE00E94E50160E0C2
:100BB00089E00E94E50182E00E94680380E00E94D3
:100BC0000E048EE191E00E94BF0281E00E940E04BB
:100BD0008BE391E00E94BF0264EF71E080E090E05F
:100BE0000E943B0281E00E9462038BE39FE1019738
:100BF000F1F720E4322E3BECE32E37E0F32E47EB07
:100C0000842E40E0942E53EAC52E50E0D52E60E0AD
:100C1000A62E60E0B62E30927C0080917A0080642F
:100C200080937A0080917A0086FDFCCF80917800D5
:100C300060917900762F682F072E000C880B990B96
:100C40000E94710724E13EEA43E251E40E94C70694
:100C50000E9439077093800160937F0161E08AE010
:100C60000E949901C7010197F1F760E08AE00E94B4
:100C70009901F4016491F6018491E82FF0E0EE0F00
:100C8000FF1FE057FF4F8591949100E412E42FE09D
:100C900030E0462F0E94C40461157105810591055D
:100CA00029F06F5F7F4F8F4F9F4F9F709B0177FFA2
:100CB00002C02F5F3F4FB90175956795072E000C55
:100CC000880B990B0E9471072DEC3CEC48EE51E427
:100CD0000E94C7060E9439072B01EB0180E00E94A9
:100CE0000E0485E591E00E94BF02052C000C660809
:100CF00077084AE0C301B20177FE0EC041E06DE221
:100D00008EE192E00E940F0366277727CB016419DA
:100D10007509860997094AE00E94710281E00E94E4
:100D20000E0481E691E00E94BF0280917F019091C4
:100D30008001CE35F1E0DF07ECF488329105D4F480
:100D400061E088E00E9499018DE691E00E94BF0277
:100D500064E670E080E090E00E943B02A114B104E0
:100D600009F459CF0E94F600882309F454CF0E9459
:100D7000000051CF873491051CF4CF35D14044F3A6
:100D800060E088E00E94990181E791E0DFCF0E9456
:100D9000DB060C94C3070E94BC0758F00E94B507FD
:100DA00040F029F45F3F29F00C94AC0751110C94EA
:100DB000F7070C94B2070E94D40768F39923B1F3A4
:100DC000552391F3951B550BBB27AA276217730771
:100DD000840738F09F5F5F4F220F331F441FAA1F05
:100DE000A9F335D00E2E3AF0E0E832D091505040C1
:100DF000E695001CCAF72BD0FE2F29D0660F771F6F
:100E0000881FBB1F261737074807AB07B0E809F054
:100E1000BB0B802DBF01FF2793585F4F3AF09E3FD9
:100E2000510578F00C94AC070C94F7075F3FE4F39E
:100E3000983ED4F3869577956795B795F7959F5F1C
:100E4000C9F7880F911D9695879597F90895E1E068
:100E5000660F771F881FBB1F621773078407BA07C7
:100E600020F0621B730B840BBA0BEE1F88F7E09522
:100E700008950E9440076894B1110C94F7070895F3
:100E80000E94DC0788F09F5798F0B92F9927B75137
:100E9000B0F0E1F0660F771F881F991F1AF0BA951E
:100EA000C9F714C0B13091F00E94F607B1E008957F
:100EB0000C94F607672F782F8827B85F39F0B93F71
:100EC000CCF3869577956795B395D9F73EF49095D1
:100ED0008095709561957F4F8F4F9F4F0895E8944F
:100EE00009C097FB3EF490958095709561957F4F72
:100EF0008F4F9F4F9923A9F0F92F96E9BB27939520
:100F0000F695879577956795B795F111F8CFFAF42F
:100F1000BB0F11F460FF1BC06F5F7F4F8F4F9F4F60
:100F200016C0882311F096E911C0772321F09EE8BE
:100F3000872F762F05C0662371F096E8862F70E024
:100F400060E02AF09A95660F771F881FDAF7880FFE
:100F50009695879597F9089597F99F6780E870E0CF
:100F600060E008959FEF80EC089500240A9416161F
:100F7000170618060906089500240A941216130687
:100F8000140605060895092E0394000C11F4882315
:100F900052F0BB0F40F4BF2B11F460FF04C06F5F31
:100FA0007F4F8F4F9F4F089557FD9058440F551F07
:100FB00059F05F3F71F04795880F97FB991F61F0DB
:100FC0009F3F79F087950895121613061406551F52
:100FD000F2CF4695F1DF08C0161617061806991FBE
:100FE000F1CF86957105610508940895E894BB27B3
:100FF00066277727CB0197F90895A1E21A2EAA1B3D
:10100000BB1BFD010DC0AA1FBB1FEE1FFF1FA217B8
:10101000B307E407F50720F0A21BB30BE40BF50BB5
:10102000661F771F881F991F1A9469F7609570953E
:10103000809590959B01AC01BD01CF010895EE0F05
:0E104000FF1F0590F491E02D0994F894FFCF66
:10104E00000000002C018C00B9007901EA00C800F4
:10105E00DC00000000001C048C006E026D022057A4
:10106E00454C434F4D4520544F204F7572204144FF
:10107E00452050726F6A6563742000204175746F4D
:10108E006D61746963204C6967687420436F6E7478
:10109E00726F6C200044697374616E63653A202030
:1010AE000020204C696768742069732000204F6E01
:0610BE00004F6666000011
:00000001FF
