:100000000C945D000C9485000C9485000C94850084
:100010000C9485000C9485000C9485000C9485004C
:100020000C9485000C9485000C9485000C9485003C
:100030000C9485000C9485000C9485000C9485002C
:100040000C943D030C9485000C9485000C94850061
:100050000C9485000C9485000C9485000C9485000C
:100060000C9485000C9485000000000024002700FB
:100070002A0000000000250028002B0004040404CE
:100080000404040402020202020203030303030342
:10009000010204081020408001020408102001021F
:1000A00004081020000000080002010000030407FB
:1000B00000000000000000006E0411241FBECFEFFE
:1000C000D8E0DEBFCDBF11E0A0E0B1E0E8EDFBE09D
:1000D00002C005900D92A836B107D9F721E0A8E635
:1000E000B1E001C01D92AB38B207E1F710E0CDE5F9
:1000F000D0E004C02197FE010E94E405CC35D10771
:10010000C9F70E9487030C94EA050C940000AF9293
:10011000BF92CF92DF92EF92FF920F931F93CF93F4
:10012000DF936C017B018B01040F151FEB015E0156
:10013000AE18BF08C017D10759F06991D601ED91EB
:10014000FC910190F081E02DC6010995892B79F78A
:10015000C501DF91CF911F910F91FF90EF90DF903C
:10016000CF90BF90AF90089590E0FC01EC55FF4F09
:100170002491FC01E057FF4F3491FC01E458FF4FFC
:10018000E491EE23C9F0222339F0233001F1A8F4E1
:10019000213019F1223029F1F0E0EE0FFF1FEE5867
:1001A000FF4FA591B4918FB7F894EC91611126C0DF
:1001B00030953E233C938FBF08952730A9F0283017
:1001C000C9F0243049F7809180008F7D03C0809171
:1001D00080008F7780938000DFCF84B58F7784BDD8
:1001E000DBCF84B58F7DFBCF8091B0008F7780937C
:1001F000B000D2CF8091B0008F7DF9CF3E2BDACF07
:10020000CF93DF9390E0FC01E057FF4F2491845897
:100210009F4FFC0184918823D1F090E0880F991FB3
:10022000FC01E859FF4FA591B491FC01EE58FF4F36
:10023000C591D49161110EC09FB7F8948C91E22FB3
:10024000E0958E238C932881E223E8839FBFDF9182
:10025000CF9108958FB7F894EC91E22BEC938FBF78
:10026000F6CF3FB7F89480916D0190916E01A09107
:100270006F01B091700126B5A89B05C02F3F19F002
:100280000196A11DB11D3FBFBA2FA92F982F882716
:10029000BC01CD01620F711D811D911D42E0660FF1
:1002A000771F881F991F4A95D1F708958F929F92C3
:1002B000AF92BF92CF92DF92EF92FF924B015C011F
:1002C0000E9431016B017C010E9431016C197D0992
:1002D0008E099F09683E734081059105A8F321E0CE
:1002E000821A9108A108B10888EEC80E83E0D81ED2
:1002F000E11CF11C81149104A104B10429F7FF90C1
:10030000EF90DF90CF90BF90AF909F908F90089527
:10031000089590E080E008958F929F92AF92BF92EF
:100320000F931F93CF93DF93CDB7DEB7A1970FB68F
:10033000F894DEBF0FBECDBF19A2423008F44AE0E8
:100340008E010F5D1F4F842E912CB12CA12CA50185
:1003500094010E94C205E62FB901CA01EA3044F5B2
:10036000E05DD801EE938D01232B242B252B79F70B
:1003700090E080E0109769F0FD0101900020E9F71E
:100380003197AF014A1B5B0BBD0183E791E00E94EF
:100390008700A1960FB6F894DEBF0FBECDBFDF91E8
:1003A000CF911F910F91BF90AF909F908F90089524
:1003B000E95CD7CFFC0101900020E9F73197AF014C
:1003C000481B590BBC0183E791E00C948700CF9345
:1003D000DF93EC0160E08E810E94B40061E08E81C9
:1003E0000E94B40060E08E810E94B4008BE891E02E
:1003F0000197F1F7DF91CF910895CF92DF92EF92BD
:10040000FF920F931F93CF93DF936C017C0187E0E2
:10041000E80EF11CD0E0C0E0062F10E0B8010C2E71
:1004200002C0759567950A94E2F76170F7018191B2
:100430007F010E94B4002196C430D10579F7C6012E
:10044000DF91CF911F910F91FF90EF90DF90CF90B0
:100450000C94E701CF92DF92EF92FF920F931F93DC
:10046000CF93DF93EC01F62E642F8C810E94B400B1
:100470008D818F3F19F060E00E94B4000F2D10E0D5
:100480008F8584FF25C06E0187E0C80ED11CF12C3A
:10049000E12CB8010E2C02C0759567950A94E2F71D
:1004A0006170F60181916F010E94B400FFEFEF1AB5
:1004B000FF0A88E0E816F10461F7CE01DF91CF91E1
:1004C0001F910F91FF90EF90DF90CF900C94E70178
:1004D000B80184E0759567958A95E1F7CE010E9491
:1004E000FD016F2DCE01DF91CF911F910F91FF90F4
:1004F000EF90DF90CF900C94FD0140E0682F83E7F0
:1005000091E00C942A02CF93DF93823029F49091EA
:1005100082019860909382018093860110928701F6
:1005200080E48093880180E18093890180E5809355
:100530008A0161E0809177010E9400018091780139
:100540008F3F19F061E00E94000161E08091790124
:100550000E940001C3E7D1E09E0123573140809102
:10056000820184FD0BC084E090E0219628173907B2
:1005700044F461E08E810E940001EECF88E090E0BB
:10058000F4CF8BE39DE00197F1F760E08091770174
:100590000E94B40060E0809179010E94B4008091D3
:1005A00078018F3F19F060E00E94B40080918201D1
:1005B00084FD39C063E083E791E00E94FD01CBE454
:1005C000D6E4CE010197F1F763E083E791E00E9462
:1005D000FD012197F1F763E083E791E00E94FD01BF
:1005E00083E592E00197F1F762E083E791E00E94F2
:1005F000FD018091820180620E947D0284E08093EF
:1006000083018CE00E947D0281E00E947D028BE3E9
:100610009FE10197F1F782E08093840186E0DF910A
:10062000CF910C947D0280620E947D028BE496E45F
:100630000197F1F78091820180620E947D0283E53B
:1006400092E00197F1F78091820180620E947D0221
:10065000D0CF90918601891710F08FEF890FE82F86
:10066000F0E0ED58FE4F848980680C947D0241E0F3
:100670000E942A0281E090E008951F920F920FB627
:100680000F9211242F933F938F939F93AF93BF9318
:100690008091690190916A01A0916B01B0916C0108
:1006A0003091680123E0230F2D3758F50196A11DE5
:1006B000B11D209368018093690190936A01A09312
:1006C0006B01B0936C0180916D0190916E01A091CE
:1006D0006F01B09170010196A11DB11D80936D0154
:1006E00090936E01A0936F01B0937001BF91AF9191
:1006F0009F918F913F912F910F900FBE0F901F9060
:10070000189526E8230F0296A11DB11DD2CF78942B
:1007100084B5826084BD84B5816084BD85B5826006
:1007200085BD85B5816085BD80916E0081608093B7
:100730006E00109281008091810082608093810020
:100740008091810081608093810080918000816030
:10075000809380008091B10084608093B10080918B
:10076000B00081608093B00080917A0084608093B3
:100770007A0080917A00826080937A0080917A007A
:10078000816080937A0080917A00806880937A00FB
:100790001092C10060E08EE00E94000161E088E0FC
:1007A0000E94000182E00E94830280E00E942903EF
:1007B0008CE091E00E94DA0181E00E94290389E245
:1007C00091E00E94DA0160ED77E080E090E00E9425
:1007D000560181E00E947D028BE39FE10197F1F7D2
:1007E00010E4C0E0D0E010937C0080917A00806437
:1007F00080937A0080917A0086FDFCCF809178000A
:1008000060917900762F682F072E000C880B990BCA
:100810000E94360524E13EEA43E251E40E948C0442
:100820000E94FE04709372016093710180E00E9447
:10083000290383E491E00E94DA01C0907101D09015
:1008400072010D2C000CEE08FF084AE0C701B6014A
:10085000F7FE0EC041E06DE283E791E00E942A02BC
:1008600066277727CB016C197D098E099F094AE01D
:100870000E948C0180E591E00E94DA0181E00E94F3
:10088000290384E591E00E94DA0180917101909141
:100890007201889744F461E088E00E94B40080E629
:1008A00091E00E94DA018091710190917201873488
:1008B000910544F060E088E00E94B40084E691E095
:1008C0000E94DA0164E670E080E090E00E94560148
:1008D000209709F488CF0E94000085CFE3E7F1E07C
:1008E0001382128284E091E09183808382E084838A
:1008F0008FEF858383E0868384E0878385E080872C
:1009000086E0818787E0828713861486158616869F
:10091000178681E00C9483020E94A0040C94880541
:100920000E94810558F00E947A0540F029F45F3F4B
:1009300029F00C94710551110C94BC050C947705A9
:100940000E94990568F39923B1F3552391F3951B00
:10095000550BBB27AA2762177307840738F09F5FE0
:100960005F4F220F331F441FAA1FA9F335D00E2E4D
:100970003AF0E0E832D091505040E695001CCAF7BA
:100980002BD0FE2F29D0660F771F881FBB1F26177D
:1009900037074807AB07B0E809F0BB0B802DBF0154
:1009A000FF2793585F4F3AF09E3F510578F00C9423
:1009B00071050C94BC055F3FE4F3983ED4F3869533
:1009C00077956795B795F7959F5FC9F7880F911D44
:1009D0009695879597F90895E1E0660F771F881F30
:1009E000BB1F621773078407BA0720F0621B730BE3
:1009F000840BBA0BEE1F88F7E09508950E94050559
:100A00006894B1110C94BC0508950E94A10588F06A
:100A10009F5798F0B92F9927B751B0F0E1F0660FC2
:100A2000771F881F991F1AF0BA95C9F714C0B13003
:100A300091F00E94BB05B1E008950C94BB05672FAF
:100A4000782F8827B85F39F0B93FCCF38695779532
:100A50006795B395D9F73EF490958095709561951B
:100A60007F4F8F4F9F4F0895E89409C097FB3EF446
:100A700090958095709561957F4F8F4F9F4F9923EB
:100A8000A9F0F92F96E9BB279395F6958795779569
:100A90006795B795F111F8CFFAF4BB0F11F460FF29
:100AA0001BC06F5F7F4F8F4F9F4F16C0882311F081
:100AB00096E911C0772321F09EE8872F762F05C095
:100AC000662371F096E8862F70E060E02AF09A9530
:100AD000660F771F881FDAF7880F9695879597F925
:100AE000089597F99F6780E870E060E008959FEFB0
:100AF00080EC089500240A941616170618060906B5
:100B0000089500240A941216130614060506089583
:100B1000092E0394000C11F4882352F0BB0F40F40B
:100B2000BF2B11F460FF04C06F5F7F4F8F4F9F4F4B
:100B3000089557FD9058440F551F59F05F3F71F0CD
:100B40004795880F97FB991F61F09F3F79F0879534
:100B50000895121613061406551FF2CF4695F1DFBD
:100B600008C0161617061806991FF1CF869571054D
:100B7000610508940895E894BB2766277727CB0181
:100B800097F90895A1E21A2EAA1BBB1BFD010DC007
:100B9000AA1FBB1FEE1FFF1FA217B307E407F5072D
:100BA00020F0A21BB30BE40BF50B661F771F881F09
:100BB000991F1A9469F760957095809590959B019F
:100BC000AC01BD01CF010895EE0FFF1F0590F49118
:080BD000E02D0994F894FFCF19
:100BD8000000000037038700890188012057454C31
:100BE800434F4D4520544F204F75722041444520B6
:100BF80050726F6A6563742000204175746F6D616F
:100C0800746963204C6967687420436F6E74726FEF
:100C18006C20004272696768746E6573733A2000CD
:100C28002520200020204C69676874206973200003
:080C3800204F6E004F666600BC
:00000001FF
